:020000040800F2
:10000000F8050020A90100089F2400082B1F000804
:100010009D240008E10D00083129000800000000BF
:10002000000000000000000000000000C3240008E1
:10003000E30D000800000000C1240008412500086D
:10004000C3010008C3010008C3010008C301000880
:10005000C3010008C3010008C3010008C301000870
:10006000C3010008C3010008C3010008C301000860
:10007000C3010008C3010008C3010008C301000850
:10008000C3010008C3010008C3010008000000000C
:10009000000000000000000000000000C301000894
:1000A000C3010008C3010008C3010008C301000820
:1000B000C3010008C3010008C3010008C301000810
:1000C000C3010008C3010008C3010008C301000800
:1000D000C3010008C3010008C301000800000000BC
:1000E000C3010008C3010008C301000800000000AC
:1000F000000000000000000000000000C301000834
:1001000000000000C3010008C3010008C30100088B
:1001100000000000000000000000000000000000DF
:10012000C3010008C3010008C3010008C30100089F
:10013000C3010008000000000000000000000000F3
:10014000000000000000000000000000C3010008E3
:10015000C3010008C3010008C3010008C30100086F
:10016000C3010008C30100080000000000000000F7
:10017000000000000000000000000000000000007F
:1001800000000000C30100080000000000000000A3
:10019000C3010008DFF80CD000F05CFB004800470A
:1001A000FD320008F8050020064880470648004751
:1001B000FEE7FEE7FEE7FEE7FEE7FEE7FEE7FEE717
:1001C000FEE7FEE7CD250008950100082DE9F05F68
:1001D0000546002092469B468846064681464024B6
:1001E0001BE0284641464746224600F0DDF95346CB
:1001F0005A46C01A914110D311461846224600F0C3
:10020000C4F92D1A67EB01084F4622460120002150
:1002100000F0BBF917EB00094E41201EA4F10104C8
:10022000DFDC484631462A464346BDE8F09F2DE9CB
:10023000F0410024061B254671F1000605DA012471
:100240000027D0EB070067EB0101161E73F10006D3
:1002500005DA0027D2EB0702012567EB0303FFF75E
:10026000B5FF86460E4617469C46AC4204D0002594
:10027000D0EB050E65EB010624B10020D2EB0007A0
:1002800060EB030C704631463A466346BDE8F081A8
:10029000D2B201E000F8012B491EFBD270470022C8
:1002A000F6E710B513460A4604461946FFF7F0FF75
:1002B000204610BD2DE9FE4F804681EA0300C00FA5
:1002C0000C46009021F0004123F00045B8EB0200FD
:1002D000A94105D24046214690461C460B4602469F
:1002E00023F00040104347D0270DC7F30A00C3F3A3
:1002F0000A510290401A019040286BDAC3F31300B0
:1003000040F4801B0098924620B10023D2EB030AF0
:1003100063EB0B0B01985946C0F14002504600F0C8
:1003200034F906460D4650465946019A00F04CF9FC
:1003300010EB08006141002487EA115284EAE77358
:100340001A4340D0009A62B3019A012A4FEA075239
:1003500015DC001B61EB02014FF0004202EA07527C
:10036000CDE90042001C41F5801132462B4600F0D9
:1003700083F903B0BDE8F08F40462146F9E7001B42
:1003800061EB0201001C41F5801300185B4120184D
:10039000A2F5001747EB030140EAD570B6196D418D
:1003A00011E06D084FEA360645EAC0754FEA07527C
:1003B000001B61EB0201001C41F5801149084FEA66
:1003C00030000019514132462B4603B0BDE8F04FD2
:1003D00000F043B90098012240000023D0EB020254
:1003E00063EBE073009821464FEAE074B8EB00003D
:1003F00061EB0401E9E783F000435BE781F0004132
:1004000058E72DE9FE4F81EA030404F0004421F08F
:10041000004100944FF0000B23F0004350EA010428
:100420005ED052EA03045BD0C3F30A54C1F30A5509
:100430002C44A4F2F3340194A0FB0254C1F3130141
:1004400041F48011C3F3130343F4801301FB02440E
:1004500000FB034E840A970A44EA815447EA835713
:10046000A4FB076802958D0A05FB07854FEA932CCC
:1004700004FB0C542705029D4FEA065847EA16373D
:10048000B5EB08056EEB070C870E920E47EA811755
:1004900042EA8312A7FB0201B6EB0B0164EB0004F6
:1004A0002B0D43EA0C335E1844EB1C50DA465146E0
:1004B000E7FB0201C5F313044FEA0B3343EA14537D
:1004C0004FEA0432019C43EA0603A4F10C040294AF
:1004D000009CCDE900B400F0CFF803B0BDE8F08F88
:1004E00000200146F9E70EB540F2334102910021A8
:1004F000CDE900110A460B4600F0BEF803B000BD7E
:1005000000F0004230F000400AD0C10D01F56071EA
:10051000C0F3160042EA0151C20840071143704778
:1005200000200146704701F0004330B421F0004143
:1005300050EA010206D00A0DA2F56072C1F3130160
:10054000002A02DC30BC00207047440F44EAC1049A
:10055000C100E01830BC00EBC25000F047B830B525
:100560000B46014600202022012409E021FA02F571
:100570009D4205D303FA02F5491B04FA02F528440B
:10058000151EA2F10102F1DC30BD202A04DB203A65
:1005900000FA02F1002070479140C2F1200320FAD6
:1005A00003F3194390407047202A04DB203A21FAD4
:1005B00002F00021704721FA02F3D040C2F120027C
:1005C0009140084319467047202A06DBCB17203A92
:1005D00041FA02F043EAE07306E041FA02F3D04048
:1005E000C2F1200291400843194670470029A8BF74
:1005F0007047401C490008BF20F00100704710B44C
:10060000B0FA80FC00FA0CF050EA010404BF10BC00
:10061000704749B1CCF1200421FA04F411FA0CF12D
:1006200018BF012121430843A3EB0C01CB1D4FEA66
:1006300000614FEA102042BF002010BC704700EB61
:10064000C35010440029A4BF10BC7047401C49008F
:1006500008BF20F0010010BC704710B5141E73F1E4
:10066000000408DA401C41F1000192185B411A4372
:1006700001D120F0010010BD2DE9F04D92469B46BE
:1006800011B1B1FA81F202E0B0FA80F22032904664
:10069000FFF77BFF04460F4640EA0A0041EA0B01E0
:1006A00053465A46084313D0114653EA010019D065
:1006B000C8F140025046FFF777FF05460E46504608
:1006C00059464246FFF761FF084305D0012004E088
:1006D00020463946BDE8F08D0020054346EAE07625
:1006E0002C4337430A986305E40AA0EB0800002274
:1006F000FD0A44EA47540A3002D500200146E9E7E2
:10070000010510196941DDE9084500196941BDE895
:10071000F04DA2E72DE9F04D81EA030404F0004B0F
:1007200021F0004514464FF0000A23F0004150EA42
:10073000050220D054EA01021DD0C5F30A57024633
:10074000C5F31303C1F31300C1F30A5640F4801537
:1007500043F48013A7EB0608101BD64608F2FD38B9
:1007600073EB050002D308F1010801E092185B4128
:10077000B8F1000F03DA00200146BDE8F08D00203B
:100780004FF48011064684460EE0171B73EB0507F5
:1007900005D3121B63EB050306434CEA010C490821
:1007A0004FEA300092185B4150EA0107EDD152EA5E
:1007B000030012D082EA040083EA0501084305D051
:1007C000101BAB4106D20122002306E000224FF0AD
:1007D000004302E06FF0010253101AEB06004CEBED
:1007E000085110EB0A0041EB0B01BDE8F04DFFF79B
:1007F00034BFC1F30A52C1F3130140F2FF3341F495
:1008000080119A4202DA00200146704740F23343D9
:100810009A42A2F2334202DC5242FFF7C5BEFFF712
:10082000B4BE000030B5041E71F1000404DB4FF0CB
:100830000044404264EB0101141E73F1000405DB27
:100840001C464FF00043524263EB0403994208BF39
:10085000904230BD064C074D06E0E06840F00103D1
:1008600094E8070098471034AC42F6D3FFF796FCA3
:100870005C3600087C3600082DE9F05F04468B46A4
:100880005349D0175118A1FB0123B4F9106040F16E
:10089000FF30A2FB069C00FB013301FB0033F7177E
:1008A00003FB06C602FB0768B4F90E504FF0000ABE
:1008B000A5FB017CEE1706FB01C605FB00656E0477
:1008C00046EAD7367F0417EB090546EB0806B4F96C
:1008D0000C701AEB050546EBC709B4F90A60A2FBD8
:1008E00006C803FB06834FEAE67702FB0732B4F93A
:1008F00008604FEA1C23A6FB01C84FEAE67707FB16
:10090000018106FB00104FEA003143EA02634FEA1F
:100910000C3041EA1C51181841EB2222001C42F510
:100920000043E288A0FB027603FB026200FB0A2080
:100930004210C31752EA030047D0CBF58010C1170D
:10094000C907C607751B41EA500140F63546A5FBAD
:10095000060C61EB090101FB06C1002705FB07112D
:10096000FFF765FCB4F91630420B42EAC142A3FB23
:10097000027CDD1705FB02C54E1303FB0653A7FBE4
:10098000025C03FB02C207FB06226B0E43EAC213A2
:100990005616B4F91420A2FB007CD51705FB00C540
:1009A00002FB0155FA0CC01842EA45327141801829
:1009B00041EBE5414FEA102040EA0160B4F9121022
:1009C0004FEA01114018BDE8F09F0020FBE700004E
:1009D000000CFEFFF8B50546808C0C46762801D049
:1009E000772857D1012305F13202D021284600F0A3
:1009F00073F9E8BB95F83200582801D0602849D136
:100A0000B622E021284600F0D4F988BB01236A46CB
:100A1000F321284600F060F90028F7D19DF8000086
:100A2000C007F3D1284600F0FFF8002833D095F82E
:100A30003200602804D1284600F063F900282AD04B
:100A400060796178400140EA8100C2B2F521284610
:100A500000F0AFF960B92078012801D100202070A2
:100A6000E078A178400140EA81002178084300E065
:100A700010E0C6B295F83200602805D12279F22143
:100A8000284600F096F928B93246F421284600F0AD
:100A900090F908B10020F8BD0120F8BD03210170D4
:100AA000002242708170C1700171417170472DE95F
:100AB000FC41044690F8320090460F461E466028DE
:100AC00004D00EB100201860002602E00EB1082309
:100AD00000E006236A46F721204600F0FDF810B139
:100AE0000020BDE8FC819DF800009DF80420010372
:100AF0009DF80100238841EA00119DF80200B4F935
:100B0000025041EA10119DF80300000340EA021070
:100B10009DF8052040EA1210C210A2EB4302C3EB7D
:100B200020104043B4F904306A430013D2125843F2
:100B300002EBA03505EB85008030001238602A46B4
:100B40002046FFF799FEC8F80000AEB3BDF80600D6
:100B5000E18B40BA8003A0EB0150A5F59635B4F9BE
:100B60002010227F01FB150094F922106A4369438B
:100B70004FF40043891203EBE22251439A0102EB46
:100B8000A121B4F91A2000F58040514301F500512C
:100B9000C01389134843C1134943227EC9115143ED
:100BA000B0EB211001D5002004E04FF0C85188427D
:100BB00000DD084600133060012092E7FEB51C00FE
:100BC00015460E4601D002AB00E0002301AA69469B
:100BD000FFF76DFF00281FD09DED000ADFED0F0A23
:100BE000B8EEC00A80EE201ADFED0D0A86ED001A7D
:100BF0009DED010AB8EE400A20EE200A85ED000ABC
:100C00004CB19DED020ADFED070AB8EE400A20EE76
:100C1000200A84ED000A0120FEBD00000000C84249
:100C20000000803B0000803A10B50446024688214F
:100C300000F0A3F800284DD0A21C8A21204600F025
:100C40009CF8E8B3221D8C21204600F096F8B8B33A
:100C5000A21D8E21204600F090F888B304F108020E
:100C60009021204600F089F850B304F10A02922145
:100C7000204600F082F818B304F10C0294212046BB
:100C800000F07BF8E0B104F10E029621204600F05E
:100C900074F8A8B104F110029821204600F06DF814
:100CA00070B104F112029A21204600F066F838B1C2
:100CB00004F114029C21204600F05FF800B100E02E
:100CC00008E004F116029E21204600F056F808B113
:100CD000012010BD002010BD3EB514460A46818C8F
:100CE0004FF6FF75CDE9004305EA410141F2883531
:100CF0000295806A012300F06BFB002800D00120E0
:100D00003EBD1CB50446012300F11802A121FFF7E6
:100D1000E3FF10BB04F11A02E121204600F02DF898
:100D2000D8B1012304F11C02E3212046FFF7D4FFD0
:100D300098B96A46E421204600F01FF868B101AA7C
:100D4000E521204600F019F838B1012304F1220210
:100D5000E7212046FFF7C0FF08B100201CBDBDF809
:100D60000000C1B2C0F3032040EA0110E083BDF8E7
:100D700004000009208401201CBD7FB51446828C2C
:100D80004FF6FF7303EA420541F28836022303AAB5
:100D90008DE84C000A46806A0123294600F018FBC2
:100DA00010B1002004B070BDBDF80C0020800120FF
:100DB000F8E737B5828C4FF6FF7303EA420484B03C
:100DC00042F21075012306AA8DE82C000A46806ABB
:100DD000214600F0FBFB002800D0012007B030BD09
:100DE000FEE7704770B5044600F0D8F80546601C71
:100DF00002D004480078044400F0D0F8401BA04220
:100E0000FAD370BD1C0000202DE9F84FDFF860B167
:100E100000224FF001084FF0030A4FF00F090BF1C9
:100E2000040E00BF0B6808FA02F42340A3426ED1FF
:100E30004D68022D01D0122D0ED1D50800EB850C86
:100E4000DCF820505607F70E09FA07F6B5430E698D
:100E5000BE402E43CCF82060066855000F790AFA90
:100E600005FC07F0030726EA0C06AF40374307608E
:100E70004E68012E05D0022E03D0112E01D0122E65
:100E80000ED18668CF6826EA0C06AF4037438760EC
:100E90004668A6430C79C4F300149440344344607C
:100EA000C6688C6826EA0C06AC403443C4604C68C3
:100EB000E40056D52F4C256845F48045256024680C
:100EC00022F0030504F4804400942B4C2E19D6F82C
:100ED000084895072F0F09FA07F5AC43274DA8429C
:100EE00001D1002515E0264DA84201D1012510E0D1
:100EF000244DA84201D102250BE0234DA84201D187
:100F0000032506E0214DA84202D1042501E028E096
:100F10000725BD402543C6F80858DBF800405D466C
:100F20004E689C43F60300D51C432C60DEF800405D
:100F300075464E689C43B60300D51C432C600C4D8F
:100F400008352C684E689C43F60200D51C432C6083
:100F5000074D0C352C684E689C43B60200D51C43E7
:100F60002C60521C102AFFF45DAFBDE8F88F000022
:100F7000003C014044380240003001400000024083
:100F80000004024000080240000C02400010024031
:100F90000AB1816170470904FBE7000001488068DD
:100FA000704700001C00002070B5040004D094F8C5
:100FB0003D00002510B106E0012070BD84F83C50D2
:100FC000204600F0A1FB242084F83D002068016841
:100FD00021F00101016000F0F3FC33492268B0FB0D
:100FE000F1F15160314A6368934206D94FF4967328
:100FF00059434FF47A73B1FBF3F12368491C19622A
:10100000616891420BD84900B0FBF1F2C2F30B02C8
:10101000042A01D2042019E0B0FBF1F016E0A36825
:101020009BB301EBC10202EB0112B0FBF2F242F4FE
:101030008042120530D04BB301EBC10202EB01112B
:10104000B0FBF1F040F4804040F400402168C861FA
:10105000D4E90701084321680860D4E90310084374
:1010600021688860D4E9050108432168C8602068C8
:10107000016841F0010101602564202084F83D00F1
:10108000256384F83E50002070BD00E006E001EBCF
:101090004102B0FBF2F2CCE70120D7E701EB4101BE
:1010A000B0FBF1F0D0E7000040420F00A086010045
:1010B0002DE9F84F1F4690468A460446DDF82890F1
:1010C000FFF76CFF054694F83D0020286FD11923E7
:1010D00001226E492046009501F0E5F80028F5D17F
:1010E00094F83C00012862D0012084F83C0020687C
:1010F0000168C90703D1016841F00101016020685E
:10110000016821F400610160222084F83D00102074
:1011100084F83E0000262664C4F8248067855C4875
:10112000E062608D20852B464A465146204600F0FD
:1011300011FF28B1206C84F83C60042841D04DE0B8
:10114000208D544F68B1012814D00228206801680E
:1011500016D041F480610160206841698069009087
:1011600085E02068416981690091016841F400715E
:1011700001607CE02068016821F480610160F0E793
:1011800021F4806101602068016841F40061E2E7B8
:10119000032849D801280BD0022817D04B4600223B
:1011A00039462046009501F07EF8B8B92AE06AE099
:1011B0002A464946204601F0EBF828B1206C202849
:1011C0000CD00120BDE8F88F206845E04B46002296
:1011D00039462046009501F066F808B10320F1E792
:1011E0002068016841F40071016020680169606A4B
:1011F000421C62620170208D401E2085608D401E61
:101200006085E1E72068016821F480610160206861
:101210000169606A421C62620170208D401E208557
:10122000608D401E6085D1E72A464946204601F080
:10123000AFF80028C2D120680269606A411C61626F
:101240000270208D401E2085608D401E60852068C4
:101250004169C94349070AD40169606A421C626254
:101260000170208D401E2085608D401E6085208D80
:1012700000288DD1202084F83D0084F83E6084F859
:101280003C6000209EE702209CE700000200100066
:101290000000FFFF040001002DE9F84F1F469046B3
:1012A0008A460446DDF82890FFF778FE064694F853
:1012B0003D0020287ED11923012243492046009673
:1012C00000F0F1FF00287DD194F83C00012879D08E
:1012D000012084F83C0020680168C90703D1016837
:1012E00041F0010101602068016821F400610160A2
:1012F000212084F83D00102084F83E00002525645C
:10130000C4F8248067853148E062608D20853346CB
:101310004A465146204600F08DFE28B1206C84F8E4
:101320003C5004284CD00DE0206841698069009051
:1013300030E032464946204601F05BF828B1206C87
:10134000042838D00320BDE8F88F606A411C616230
:10135000216800780861608D401E6085208D401EE8
:1013600080B2208521684A69D24352070BD450B11C
:10137000606A421C626200780861608D401E608570
:10138000208D401E208532464946204600F064FFED
:101390000028D4D1208D0028CBD154F83D0B016812
:1013A00041F400710160202004F81E09E57765779B
:1013B0000020C8E706E02068016841F40071016080
:1013C0000120C0E70220BEE7020010000000FFFF7E
:1013D0002DE9FF4F83B09A46DDE911879346044615
:1013E000DDF84090FFF7DAFD054694F83D0020282F
:1013F00074D11923012272492046009500F053FF51
:101400000028F5D194F83C00012867D0012084F829
:101410003C0020680168C90703D1016841F001015F
:1014200001602068016821F400610160222084F8D5
:101430003D00402084F83E0000262664C4F8249035
:10144000A4F82A805F48E062608D2085CDE90075B0
:1014500053465A462046049900F036FE28B1206CC7
:1014600084F83C60042843D076E0208DC8B1012880
:1014700020D00228206823D0416980690090208D07
:1014800003286BD801282AD04F4902283B464FF049
:10149000000200955BD08846204600F004FFE8BBC0
:1014A00040E02068416981690091016841F4007160
:1014B000016076E02068016821F480610160F0E756
:1014C000016821F4806101602068016841F40061D5
:1014D0000160206841698069009062E06EE02A4600
:1014E0003946204600F054FF30B1206C202833D01C
:1014F000012007B0BDE8F08F206847E02068016850
:1015000041F40071016020680169606A421C6262F6
:101510000170208D401E2085608D00E01CE0401E83
:101520006085E9E72068016821F480610160206836
:101530000169606A421C62620170208D401E208534
:10154000608D401E60853B46002241460095204646
:1015500000F0A9FE0028D1D00320CAE72A46394668
:10156000204600F015FF0028BFD120680169606A9D
:10157000421C62620170208D401E2085608D401EDD
:10158000608520684169C94349070AD40169606AD6
:10159000421C62620170208D401E2085608D401EBD
:1015A0006085208D00287FF46AAF202084F83D00FC
:1015B00084F83E6084F83C6000209AE7022098E7B7
:1015C000020010000000FFFF040001002DE9FF4FA2
:1015D00083B09A46DDE9118793460446DDF84090D2
:1015E000FFF7DCFC064694F83D0020287DD1192346
:1015F000012243492046009600F055FE00287CD188
:1016000094F83C00012878D0012084F83C00206840
:101610000168C90703D1016841F001010160206838
:10162000016821F400610160212084F83D00402020
:1016300084F83E0000252564C4F82490A4F82A808C
:101640003048E062608D2085CDE9007653465A46E9
:101650002046049900F0B0FD80B3206C84F83C5023
:10166000042848D008E032463946204600F0C1FE42
:1016700030B1206C042839D0032007B0BDE8F08FCA
:10168000606A411C6162216800780861208D401EFB
:1016900080B22085618D491E618521684A69D243E7
:1016A00052070BD468B1606A421C6262007808611C
:1016B000208D401E2085608D401E6085208D002875
:1016C000D1D132463946204600F0C6FD0028D0D19F
:1016D00054F83D0B016841F400710160202004F8CA
:1016E0001E09E57765770020C7E706E020680168F6
:1016F00041F4007101600120BFE70220BDE7000056
:10170000020010000000FFFF10B586B0044614214F
:101710006846FEF7C4FD14492068884221D1134869
:10172000016841F0020101600068694600F00200B2
:1017300005904FF44070009012200190012002901B
:1017400003200390042004900948FFF75DFB07483D
:101750001030016841F400110160006800F40010CD
:10176000059006B010BD0000005400403038024023
:101770000004024002488168027811448160704789
:101780001C0000200B4810B5016841F40071016095
:10179000016841F480610160016841F48071016079
:1017A000032000F063F8002000F006F800F024F8B1
:1017B000002010BD003C024070B50D4D04464FF4B2
:1017C0007A712878B1FBF0F00A490968B1FBF0F0B2
:1017D00000F0D4FA48B9102C07D200222146501E3E
:1017E00000F024F800206C6070BD012070BD000086
:1017F0001C000020280000200B4882B0016841F442
:1018000080410160006800F4804000900648001F9D
:10181000016841F080510160006800F08050009044
:10182000072002B000F022B844380240F0B40E4B5A
:101830001B680C46C3F30223C3F10705042D00D92E
:101840000425191D072901D2002300E0DB1E012613
:1018500006FA05F1491E214099409E40761E164029
:101860003143F0BC00F01CBE0CED00E0064900F076
:10187000070208684FF6FF03184040EA0220034AB7
:1018800010430860704700000CED00E00000FA050E
:101890002DE9F0470E46050065D0DFF81481D8F831
:1018A0000000F7B200F00F00B04207D288F80070D5
:1018B000D8F8000000F00F00B04254D128683D4C29
:1018C000810712D5400703D5206840F4E05020601E
:1018D0002878000703D5206840F460402060206825
:1018E000A96820F0F000084320602878C0072DD0B8
:1018F000304968680839012812D0022813D003281B
:1019000011D00968890700292DDA216821F0030127
:1019100001432160FFF742FB814641F2883A0EE025
:1019200009688903EFE709688901ECE7FFF736FBEF
:10193000A0EB0901514502D90320BDE8F0872068DA
:10194000696800F00C00B0EB810FEFD1D8F80010FF
:10195000404601F00F01B14207D90770006800F05E
:101960000F00B04201D00120E7E72878400705D5F5
:101970002068E96820F4E0500843206028780007D8
:1019800006D52068296920F4604040EAC100206043
:1019900000F036F82168084AC1F30311515CC840D1
:1019A000064908600020FFF707FF0020C5E7000098
:1019B000003C02400838024044360008280000205D
:1019C0000448054900680968044AC1F38221515C52
:1019D000C8407047280000200838024054360008EC
:1019E0000448054900680968044AC1F34231515C62
:1019F000C8407047280000200838024054360008CC
:101A0000154810B5006810F00C02144813D04110AE
:101A1000042A0FD0082A0ED10F4C241F22682368F5
:101A200002F03F025B0207D52068C0F38810A0FBDC
:101A3000010106E0084610BD2168C1F38811A1FB31
:101A400000010023FEF7C2FB2168C1F30141491CDC
:101A50004900B0FBF1F010BD083802400024F4004A
:101A60002DE9F84F050076D02878DFF8F8B2BE4CA3
:101A7000C00749D0DBF800105846C1F381010129A5
:101A800008D00068C0F3810002280AD1201D006838
:101A9000400206D52068800336D568680028E2D069
:101AA00032E06868B0F5803F10D0B0F5A02F206814
:101AB00010D020F480302060206820F48020206046
:101AC0006868A0B1FFF76AFA06460CE0206840F4A7
:101AD0008030F4E740F480202060F7E7FFF75EFAFB
:101AE000801B642873D820688003F7D50CE0FFF7CB
:101AF00055FA064605E000BFFFF750FA801B642840
:101B0000F0D820688003F7D42878DFF86082800757
:101B10004FF000093ED5DBF80010584611F00C0FCD
:101B200009D00068C0F3810002280BD18D48001F46
:101B30000068400206D42068800715D5E8680128AF
:101B400009D111E0E868B8B10120C8F80000FFF73A
:101B500025FA064605E002E1FFF720FA801B02287D
:101B6000C0D820688007F7D52068296920F0F800E0
:101B700040EAC10020600DE0C8F80090FFF70EFABF
:101B8000064604E0FFF70AFA801B02281FD82068E7
:101B90008007F7D42878000722D5724E7448696907
:101BA0006C3671B101210160FFF7F8F9074604E0D6
:101BB000FFF7F4F9C01B022809D830688007F7D571
:101BC0000EE0C0F80090FFF7E9F9074605E083E072
:101BD000FFF7E4F9C01B02287ED830688007F7D4ED
:101BE0002878400768D5DFF87CA100270AF1380A79
:101BF000DAF80000C0000BD4DAF8001041F0805190
:101C0000CAF80010DAF80000012700F080500090B8
:101C1000584E3068C00510D4306840F48070306091
:101C2000FFF7BCF9009005E0FFF7B8F90099401AFA
:101C3000022851D83068C005F6D54A4EA8686836E3
:101C400001280FD00528306810D020F00100306046
:101C5000306820F004003060A868B8B1FFF79EF942
:101C600000900FE0306840F00100F4E740F004001D
:101C70003060F7E7FFF792F90099411A41F2883096
:101C8000814264D830688007F4D50EE0FFF786F90A
:101C9000009007E0FFF782F90099411A41F288307D
:101CA000814254D830688007F4D42FB1DAF800109C
:101CB00021F08051CAF80010A869C0B3DBF8001009
:101CC000C1F3810102294AD00228484607D0C8F84A
:101CD0006000FFF763F900E039E005463AE0474667
:101CE000C8F86000FFF75AF9064604E0FFF756F916
:101CF000801B02282BD820688001F7D4D5E9070182
:101D00000843A96A1C4A490802EB01416A6A41EA90
:101D10008211084395F82C1040EA01611148001F18
:101D2000016001203866FFF739F9054605E014E047
:101D3000FFF734F9401B022809D820688001F7D545
:101D40000BE000BFFFF72AF9401B022802D903204D
:101D5000BDE8F88F20688001F4D40020F8E7012066
:101D6000F6E7000008380240003802400000474211
:101D7000800E4742007000400000FFFF10B5401E7B
:101D8000B0F1807F01D3012010BD4FF0E0246061ED
:101D90000F21601700F084FB0020A0610720206164
:101DA000002010BD70B5040004D094F8390000255F
:101DB00010B106E0012070BD84F83850204600F0D4
:101DC00023F8242084F839002068C16821F40051E8
:101DD000C160204600F024FC2068016921F4904194
:101DE00001612068416921F02A0141612068C168D0
:101DF00041F40051C160E563202084F8390084F883
:101E00003A00002070BD000010B586B004461421D1
:101E10006846FEF744FA13492068884220D11248E8
:101E2000016841F400310160006800F40030059061
:101E30000D481038016841F00101016000686946F1
:101E400000F0010005900C2000900220019001207C
:101E5000029003200390072004900448FEF7D4FF6B
:101E600006B010BD0044004040380240000002406F
:101E70002DE9F843044690F839001F4616460D46F2
:101E8000202850D1A5B19EB194F8380001284AD03D
:101E9000012084F838004FF00008C4F83C8021206D
:101EA00084F83900FFF77AF8A6848146E68426E0B4
:101EB0000120BDE8F883E08C401EE084A0684B461A
:101EC000B0F5805F4FF000024FF080012046009790
:101ED00003D000F0FBFCE8B90DE000F0F7FCC8B956
:101EE00028882168C0F308004860206908B16D1C8B
:101EF00005E0AD1C03E0216815F8010B4860E08C9B
:101F00000028D8D14B46002240212046009700F0FF
:101F1000DDFC08B10320CCE7202084F8390084F8E8
:101F200038800020C5E70220C3E7FEE701684A6960
:101F3000D24352050CD46FF480624A6104210164DB
:101F4000002140F8301F20224273017301207047A6
:101F5000002070472DE9F84F0446C06A1E4692469D
:101F60000D4621680A6842F480620A60042807D09E
:101F7000012805D010F5803F02D0206B112804D134
:101F80002068016841F4807101604FF001185346E8
:101F9000002241462046009600F085F9B8BB206932
:101FA00008F10109B0F5804F12D00620216800EA3F
:101FB000D51747F0F00008613346524608F1070193
:101FC000204600F0A1F938B1206C04282FD01EE083
:101FD000E8B240F001001FE02168E8B20861334632
:101FE00052464946204600F08FF90028ECD120687F
:101FF000416981690091016841F480710160534633
:10200000002241462046009600F04DF910B1032011
:10201000BDE8F88F47F0F100216808613346524669
:102020004946204600F070F90028CDD1F0E70120A4
:10203000EEE70000F8B50446C06A1E460D46174696
:10204000042807D0012805D010F5803F02D0206B6E
:10205000122804D12068016841F4807101601346A0
:1020600000224FF001112046009600F01CF9A0B9A3
:102070002069B0F5804F12D00620216800EAD51003
:1020800040F0F000086133463A460E49204600F021
:102090003BF938B1206C042811D00320F8BD05F0BD
:1020A000FE0000E0E8B221680861064933463A467E
:1020B000891F204600F028F90028EBD1F8BD012047
:1020C000F8BD0000080001002DE9F84F0446006843
:1020D00089460B9D01689846174641F4806101606E
:1020E0002068016841F48071016000954FF0011A89
:1020F0000022514620460A9B00F0D5F8F0BB21682B
:1021000009F0FE0008610AF1010B2B4659462046F2
:102110000A9A00F0F9F818B1206C042812D03AE0BD
:1021200020684169806900902A4620460A9900F09B
:1021300060F950B1206C04282DD12068016841F469
:10214000007101600120BDE8F88FFEB2B8F1010F07
:1021500009D02168380A08612A4620460A9900F009
:1021600048F90028E6D1206806612A4620460A99E7
:1021700000F03FF90028DDD1206800E00BE00168A5
:1021800041F48071016000950022514620460A9B6F
:1021900000F089F808B10320D5E7216809F0FF00B5
:1021A00040F0010008612B46594620460A9A00F08B
:1021B000ABF80028B0D1C6E72DE9F8430446006823
:1021C0000D46DDE9089701689846164641F480718E
:1021D00001604B4600224FF001112046009700F0AD
:1021E00062F8E8B9216805F0FE0008613B464A46FE
:1021F0001849204600F088F828B1206C04280FD137
:102200000120BDE8F88320684169806900903A4662
:102210004946204600F0EDF820B1206C042813D088
:102220000320EEE7F5B2B8F1010F09D02168300ABA
:1022300008613A464946204600F0DBF80028ECD118
:10224000206805610020DCE72068016841F4007126
:102250000160D5E70200010070B516460D46044640
:102260001AE02046FFF762FE08B1012070BD681C2D
:1022700012D025B1FEF792FE801BA8420CD954F86B
:10228000400F40F0200044F8100900202060202179
:1022900061732073032070BD20684069C04340070C
:1022A000DFD4002070BD2DE9F0471E4690460D4654
:1022B0000446C1F30747DDF8209012E0701C10D0EF
:1022C0002EB1FEF76BFEA0EB0900B04209D9002049
:1022D00044F8300F20216173A07320730320BDE800
:1022E000F0872068012F0AD0806925EA00000004E9
:1022F000000C06D000214145E0D00020EFE7406906
:10230000F3E70121F7E700002DE9F0479A469146EF
:102310000D46044600264FF02008C1F307472AE087
:1023200020684069C043400512D42068016841F428
:102330000071016021686FF48060486104202064AE
:10234000266384F83D8084F83C600120BDE8F08776
:10235000B9F1FF3F0FD0B9F1000F05D0FEF71EFE17
:10236000A0EB0A01494506D944F8306F84F80D8086
:1023700026730320EAE72068012F07D0D0F8180061
:1023800025EA00000004000CE0D0C9E74069F7E747
:102390002DE9F041002590460E460446202721E015
:1023A0004069C043C0060CD421686FF0100048613A
:1023B0002564256384F83D7084F83C500120BDE815
:1023C000F0812EB1FEF7EAFDA0EB0800B04209D97A
:1023D00054F8400F40F0200044F80409677025705D
:1023E0000320ECE720684169C9434906D8D400209E
:1023F000E5E770B516460D4604461AE02046FFF79D
:1024000095FD08B1012070BD681C12D025B1FEF702
:10241000C5FD801BA8420CD954F8400F40F02000A5
:1024200044F81009002020602021617320730320EC
:1024300070BD20684069C0430006DFD4002070BD35
:1024400030B587B014216846FDF729FF11480024F4
:10245000016841F001010160016801F0010105918D
:10246000016841F00201016000680B4D00F00200BC
:102470000590224620212846FEF78AFD2020009064
:102480000120CDE90104694628460394FEF7BCFC0F
:1024900007B030BD3038024000000240FEE7704710
:1024A0000907090E002806DA00F00F0000F1E0200D
:1024B00080F8141D704700F1E02080F80014704788
:1024C00070477047FEB50446E52042F21075164687
:1024D0000F468DF804000095012301AA8021206891
:1024E000FEF7DAFE08BB0095022302AA80212068CD
:1024F000FEF7DEFDC8B9BDF8080040BA00F09CFE4A
:1025000087ED000AE0208DF804000095012301AA60
:1025100080212068FEF7C0FE38B90095022302AA88
:1025200080212068FEF7C4FD08B10020FEBDBDF883
:10253000080040BA00F0BCFE86ED000A0120FEBD96
:10254000FFF718B930B593B030216846FDF7A7FE04
:1025500014210CA8FDF7A3FE1A480024016841F0DD
:1025600080510160006800F08050119016480168A9
:1025700021F4404141F4004101600068022500F46B
:102580004040119001200390102000950695049082
:10259000CDE907404FF4A870099004200A90072065
:1025A0000B906846FFF75CFA0F20CDE90C05E802B6
:1025B000CDE90E4002210CA81094FFF769F913B081
:1025C00030BD0000403802400070004010480168F3
:1025D00041F4700101600F48016841F001010160A0
:1025E0000C4A00210832116002680B4B1A4002604D
:1025F000031D0A4A1A60026822F48022026005481C
:102600000C300160024958068039086070470000AC
:1026100088ED00E000380240FFFFF6FE1030002495
:102620002DE9F04104460068016921F44052E16857
:10263000114301612168C86849F20C629043236923
:10264000A268E5691A4363692B431A430243CA60CF
:102650002168486920F44072A06910434861E1692B
:102660006425B1F5004F9748974A21684FF032082A
:102670003FD0914201D081427CD1FFF7B1F900EB0C
:10268000C00101EB001061688900B0FBF1F6FFF7B3
:10269000A7F900EBC00101EB001061688900B0FBF5
:1026A000F1F0B0FBF5F06FF01801484306EB800144
:1026B00008EB0110B0FBF5F000F0F006FFF790F921
:1026C00000EBC00101EB001061688900B0FBF1F084
:1026D000B0FBF5F006EB0016FFF782F900EBC00146
:1026E00001EB001061688900B0FBF1F7FFF778F9A2
:1026F000D2E0914201D081423DD1FFF771F900EB68
:10270000C00101EB001061684900B0FBF1F0B0FBC3
:10271000F5F00601FFF764F900EBC00101EB0010D2
:1027200061684900B0FBF1F7FFF75AF900EBC0010F
:1027300001EB001061684900B0FBF1F0B0FBF5F06F
:102740006FF01801484307EB800108EBC100B0FBB4
:10275000F5F000F0F80006EB4006FFF741F900EB5A
:10276000C00101EB001061684900B0FBF1F7FFF711
:1027700037F93CE055E0FFF723F900EBC00101EB2E
:10278000001061684900B0FBF1F0B0FBF5F0060104
:10279000FFF716F900EBC00101EB0010616849007A
:1027A000B0FBF1F7FFF70CF900EBC00101EB0010F3
:1027B00061684900B0FBF1F0B0FBF5F06FF0180173
:1027C000484307EB800108EBC100B0FBF5F000F0D7
:1027D000F80006EB4006FFF7F3F800EBC00101EB51
:1027E000001061684900B0FBF1F7FFF7E9F800EB72
:1027F000C00101EB001061684900B0FBF1F0B0FBD3
:10280000F5F06FF01801484307EB800108EBC100B9
:10281000B0FBF5F000F00700216830448860BDE8A7
:10282000F081FFF7CDF800EBC00101EB001061680B
:102830008900B0FBF1F6FFF7C3F800EBC00101EB34
:10284000001061688900B0FBF1F0B0FBF5F06FF0AB
:102850001801484306EB800108EB0110B0FBF5F0CE
:1028600000F0F006FFF7ACF800EBC00101EB001040
:1028700061688900B0FBF1F0B0FBF5F006EB0016E3
:10288000FFF79EF800EBC00101EB001061688900C2
:10289000B0FBF1F7FFF794F800EBC00101EB00107B
:1028A00061688900B0FBF1F0B0FBF5F06FF0180142
:1028B000484307EB800108EB0110B0FBF5F000F096
:1028C0000F00A9E700140140001001402DE9F0417C
:1028D000984617460E460446069D1DE0681C1BD010
:1028E0002DB1FEF75BFBA0EB0800A84214D92068CD
:1028F000C16821F4D071C1602068416921F00101F3
:102900004161202084F8390084F83A00002084F8DE
:1029100038000320BDE8F0812068006836EA000036
:1029200004D00020B842D9D00020F3E70120F9E715
:10293000FEE700000FB4084B10B504A902AA0398E3
:1029400000F0DEF8044602A9002000F070FC2046EA
:1029500010BC5DF814FB00002F32000802E008C82C
:10296000121F08C1002AFAD170477047002001E009
:1029700001C1121F002AFBD1704700002DE9FF5F43
:1029800082B00021DDE90430020DDDF840B00343E0
:1029900018D044F61050A2F2FF3242431514119899
:1029A00001281FD0A5EB0B00401C5FEA000A4FF086
:1029B00000064E4FDFF83891B046504615D5CAF1A3
:1029C000000413E0119801244AA3012801D16FEA01
:1029D0000B010298119AC0E90031C0E9024206B029
:1029E000BDE8F09FCBF10000DFE704460021404A3C
:1029F000491842EB0450CDE9001012E0E00707D07F
:102A000032463B4640464946FDF7FBFC8046894638
:102A100032463B4610461946FDF7F3FC06460F4684
:102A20006410002CEAD1DDE90401DDE90023BAF1EC
:102A3000000F06DAFDF7E5FC42464B46FDF7E1FCE8
:102A400005E0FDF767FE42464B46FDF763FE044690
:102A50000E460022284BFDF7E5FE03D84FF0FF306D
:102A6000014607E00022254B20463146FDF722FCB7
:102A7000FDF7BFFE102409E0002C0ADB0A22002328
:102A8000FDF7A4FB039B30321A55641E50EA010285
:102A9000F2D1641C039AC4F111031444119A012A5F
:102AA00003D0012208430DD10AE0084304D00020DE
:102AB0004FF0110B119072E7A3EB0B056D1E0DE0AB
:102AC0005B4504DD4FF0000205F1010504E003DA87
:102AD0004FF00002A5F10105002AECD002981199EF
:102AE000C0E90231C0E9004579E700000000144068
:102AF0000000F03F300000000000F0430000E03F25
:102B00002DE9FF4F95B09B468946064600250FE20A
:102B1000252877D100242746F84A0121059400E0B2
:102B2000044316F8013F203B01FA03F01042F7D1AD
:102B300030782A2811D06FF02F033078A0F13002BE
:102B4000092A16D8059A44F0020402EB820203EB2C
:102B500042021044761C0590EFE759F8042B0592C9
:102B6000002A03DA504244F40054059044F0020471
:102B7000761C30782E2816D116F8010F44F0040484
:102B80002A280DD06FF02F023078A0F13003092BE6
:102B900009D807EB870302EB4303C718761CF3E75A
:102BA00059F8047B761C30786C280FD006DC4C2852
:102BB00017D068280DD06A2814D104E0742810D0EA
:102BC0007A280FD10DE044F400140AE044F4801494
:102BD00001E044F440147278824202D104F580147A
:102BE000761C761C307866280BD013DC582877D0FA
:102BF00009DC002875D04528F6D04628F4D04728AF
:102C00001AD19DE118E0632835D0642879D0652871
:102C100012D195E1702873D008DC6728F1D06928BB
:102C20006FD06E280DD06F2806D1B5E073282CD058
:102C3000752875D0782874D05A46179990476D1C1E
:102C400075E1C4F30250022809D003280DD0D9F849
:102C5000001004280DD00D6009F1040967E1D9F8CE
:102C60000010EA17C1E90052F6E7D9F800100D800C
:102C7000F2E70D70F0E719F8041B8DF80010002042
:102C80008DF80100EA46012003E059F804AB4FF04B
:102C9000FF3061074FF0000102D40DE008F101019F
:102CA0008846B9420FDA8045F8DB1AF80810002987
:102CB000F4D108E008F1010188468142FADB1AF8F4
:102CC00008100029F6D105985B46A0EB08072146BD
:102CD0003846179A00F094FA284400EB080507E0FC
:102CE0004DE029E10DE01AF8010B5A46179990477B
:102CF000B8F10108F7D25B4621463846179A13E12E
:102D000042E00A220092C4F302524FF0000A022A63
:102D100008D059F804CB032A4FEAEC710AD00DE031
:102D200029E02AE009F1070121F00702F2E802C1D7
:102D3000914609E00FFA8CFC4FEAEC71042A03D1AA
:102D40004FFA8CFC4FEAEC71002907DA0A460021A1
:102D5000DCF1000C61EB02012D2202E0220504D51A
:102D60002B228DF80420012203E0E20701D020226B
:102D7000F7E7904659E00A2102E010220DE0102109
:102D80004FF0000A00910BE010224FF0000A44F0CF
:102D900004040827009203E008224FF0000A009282
:102DA000C4F30252022A05D059F804CB0021032AA9
:102DB00008D009E009F1070121F00702F2E802C199
:102DC000914605E01FFA8CFC042A01D10CF0FF0C9F
:102DD0004FF00008220728D5702806D0009B83F00A
:102DE000100353EA0A0305D00EE040228DF80420B8
:102DF000012208E05CEA010206D030228DF80420AE
:102E00008DF8050002229046009B83F0080353EAE8
:102E10000A030AD15CEA010201D1620705D530221A
:102E20008DF804204FF001087F1E582804D034A0EC
:102E300003900EA802900DE036A0F9E753466046D5
:102E4000009AFDF7C3F984460398825C0298401EFD
:102E5000029002705CEA0100F0D1029806A9081AFB
:102E600000F1200A600702D524F4803400E0012735
:102E7000574502DDA7EB0A0000E0002000EB0A0145
:102E8000009005984144401A0590E00306D45B4643
:102E90002146179A059800F0B3F90544002706E08B
:102EA00001A85A46C05D179990476D1C7F1C474585
:102EB000F6DBE0030CD55B462146179A059800F037
:102EC0009FF9054404E030205A46179990476D1C3D
:102ED0000099481E00900029F5DC08E0029802994C
:102EE0005A460078491C0291179990476D1CBAF117
:102EF0000001AAF1010AF1DC65E1000009280100E6
:102F0000303132333435363738396162636465665F
:102F10000000000030313233343536373839414221
:102F2000434445460000000000F058F90544761C73
:102F3000307800287FF4ECAD19B02846BDE8F08F5A
:102F4000620700D4062709F1070222F0070CFCE80B
:102F50000223E14603F000485FEA080C02D00FF2BA
:102F6000702C0DE05FEA045C02D50FF2682C07E0DC
:102F70005FEAC47C02D00FF2602C01E0AFF2700C6B
:102F80004FF0FF3823F00043CDF850C065280CD037
:102F900006DC452809D046281DD047283DD13DE014
:102FA000662818D067287ED138E00021112F01DB78
:102FB000112000E0781CCDE9000106A90EA8FFF75A
:102FC000DDFCDDE90F010E9A03910021009207F16B
:102FD000010A04914DE04FF000400097CDE9011047
:102FE00006A90EA8FFF7CAFCDDE90F0203920E9BAB
:102FF00011990022DDF80CA00093049211B9791CFC
:1030000000EB010AB7EB0A0004D4C0F1FF3007F16E
:10301000010A0490AAEB0700019044E0012F00DAB6
:1030200001270021112F01DD112000E03846CDE9F4
:10303000000106A90EA8FFF7A1FCDDE90F010E9A19
:103040000391002104910092BA4621070CD4039900
:10305000514500DA8A46BAF1010F05DD009AAAF15E
:103060000101515C302908D0B84202DA10F1040F96
:1030700006DA0121CDE9011015E0AAF10101E9E725
:10308000002805DC049901440491AAEB000102E048
:10309000411C514500DD8A460499401A401C0190AC
:1030A0004FF000400290200704D40198504501DB06
:1030B000CDF8048000208DF84F0002980DF14F07E5
:1030C000B0F1004F25D02B200E9002984FF002084F
:1030D00000280CDA404202902D200E9007E00A21D1
:1030E0000298FDF73CFA3031029007F8011DB8F163
:1030F0000001A8F10108F2DC02980028EFD1791E46
:103100000E980870307800F0200040F0450007F875
:10311000020D12A8C01B00F107081498007800B136
:10312000012000EB0A01019801EBE0710598414490
:10313000401A401E0590E00306D45B462146179ACC
:10314000059800F05DF805441498007818B15A46C7
:10315000179990476D1CE00324D55B462146179ACA
:10316000059800F04DF805441CE00498002807DBA2
:10317000DDE90301884203DD0098405C179901E016
:10318000179930205A469047049805F10105401CD4
:1031900004900198401E019004D12E205A461799A0
:1031A00090476D1CBAF10001AAF1010ADDDC05E0CF
:1031B00017F8010B5A46179990476D1CB8F100019A
:1031C000A8F10108F4DC5B462146179A0598ABE6A6
:1031D0002D0000002B000000200000002DE9F04130
:1031E000044600251E461746880404D405E03946E7
:1031F0002020B0476D1C641EF9D52846BDE8F0813B
:103200002DE9F041044600251E469046C80301D52D
:10321000302700E02027880404D505E041463846E1
:10322000B0476D1C641EF9D52846BDE8F0810A68D8
:10323000531C0B601070704710B5FDF754F99FEDEB
:10324000131B53EC112BFDF7DCF89FED121B53EC15
:10325000112BFDF7D6F89FED111B53EC112BFDF749
:10326000CAF8FDF760F900EE100AB5EEC00AF1EEFB
:1032700010FA02D29FED0B0A10BD10EE100A0A4997
:103280008842F9DD9FED090A10BD00000000000032
:1032900000405F40000000000000F03E0000000021
:1032A00000001840000000000000C8420000C842B2
:1032B00010B5FDF718F99FED0B1B53EC112BFDF723
:1032C000A0F89FED0A1B53EC112BFDF79AF89FED28
:1032D000091B53EC112BFDF78EF8FDF724F900EED6
:1032E000100A10BDD7A3703D0AF76540000000002A
:1032F0000000F03ECDCCCCCCCC6C47401CB5FEF7EA
:1033000041FAFFF71FF9FFF79BF8844C824800252C
:1033100020608348C4E901054FF48040C4E90350AC
:103320006561A561E56120462562FDF73DFE04F17A
:1033300054007C4901604FF4E131C0E901150C21D2
:10334000C560C0E904518561C561FEF72BFD04F13C
:10335000C0008046FDF7A2FB04F194067620B084FD
:103360007148B4624FF47A750460041F6F0010E076
:103370006A486EA1C830FFF7DDFA684982B2C831E9
:1033800022802B46A1F17400FEF772FD3846FDF74E
:1033900029FD624841469430FDF71CFB0028E7D028
:1033A00096F83200602817D0002668A25B4869A111
:1033B000C830FFF7BFFA594982B2C83122802B4684
:1033C000A1F17400FEF754FDA046A9466420FDF764
:1033D00009FD44464F4613E0012663A2E6E74F4845
:1033E00063A1C830FFF7A6FA4C4982B2C8312280E7
:1033F0003B46A1F17400FEF73BFD3846FDF7F2FCB9
:10340000494A121D111D101FFFF75CF80028E6D075
:10341000A046A068FDF774F804460D46D8F80C00E5
:10342000FDF76EF841EC100B3C4853EC102B5CA1FF
:10343000C830CDE90045FFF77DFA384982B23C46F5
:10344000C831A8F800202346A1F17400FEF710FD52
:103450003846FDF7C7FC6420FDF7C4FC4746A1468B
:1034600011E02E485AA1C830FFF764FA2B4982B206
:10347000C8313A804C464B46A1F17400FEF7F8FC87
:103480002046FDF7AFFC284B24481433A3F1080273
:10349000111D9430FDF792FB0028E2D07869FDF70A
:1034A0002FF804460D463869FDF72AF841EC100B59
:1034B0001A4853EC102B52A1C830CDE90045FFF754
:1034C00039FA164982B2C8313A804C464B46A1F1CE
:1034D0007400FEF7CDFC66B1B869FDF711F841EC58
:1034E000100B0E4853EC102B51A1C830FFF722FAF5
:1034F00004E00A4814A1C830FFF71CFA074982B259
:10350000C8313A802346A1F17400FEF7B1FC204691
:10351000FDF768FC5AE70000005400402C00002032
:10352000A08601000044004004000020424D5032BB
:10353000383020696E697469616C697A6174696F89
:103540006E206661696C65640D0A0000424D503260
:1035500038300000424D503238303A20666F756E78
:10356000642025730D0A0000424D453238300000BA
:103570005369373032313A2048756D69646974791E
:103580002F74656D70657261747572652072656106
:1035900064696E67206661696C65640D0A000000ED
:1035A0005369373032313A2048756D6964697479EE
:1035B0003A20252E32662C2054656D706572617438
:1035C0007572653A20252E326620430D0A000000F0
:1035D000424D503238303A2054656D7065726174D6
:1035E0007572652F7072657373757265207265618F
:1035F00064696E67206661696C65640D0A0000008D
:10360000424D503238303A2050726573737572658E
:103610003A20252E32662050612C2054656D70654D
:103620007261747572653A20252E3266204300005F
:103630002C2048756D69646974793A20252E3266AC
:103640000D0A000000000000000000000102030459
:103650000607080900000000010203047C36000888
:10366000000000202C0000005C290008A83600089B
:103670002C000020CC0500006C2900080000000090
:10368000000000000000000000000000000000003A
:103690000000000000000000010000001000000019
:0836A000000000000024F4000A
:040000050800019559
:00000001FF
